:4000000002517E008F828E83E0540100000070F82278FFE4F6D8FD02523EBB010689828A83E0225002E722BBFE02E32289828A83E49322BB010989828A83F8E028F022506F
:400040000327F722BBFE05F8E328F3228A838982F8E4932822BB010689828A83F0225002F722BBFE01F322EF8DF0A4A8F0CF8CF0A428CE8DF0A42EFE22BC000BBE0029EFD7
:400080008DF084FFADF022E4CCF875F008EF2FFFEE33FEEC33FCEE9DEC984005FCEE9DFE0FD5F0E9E4CEFD22EDF8F5F0EE8420D21CFEADF075F008EF2FFFED33FD40079843
:4000C0005006D5F0F222C398FD0FD5F0EA22C2D5EC30E709B2D5E4C39DFDE49CFCEE30E715B2D5E4C39FFFE49EFE120079C3E49DFDE49CFC800312007930D507C3E49FFFA5
:40010000E49EFE22C5F0F8A3E028F0C5F0F8E582158270021583E038F022A3F8E0C5F025F0F0E582158270021583E0C838F0E822BB010A89828A83E0F5F0A3E022500687BA
:40014000F009E71922BBFE07E3F5F009E3192289828A83E493F5F074019322BB010A89828A83F0E5F0A3F0225006F709A7F01922BBFE06F3E5F009F31922EF2BFFEE3AFE9A
:40018000ED39FDEC38FC22C3EF9BFFEE9AFEED99FDEC98FC22E88FF0A4CC8BF0A42CFCE98EF0A42CFC8AF0EDA42CFCEA8EF0A4CDA8F08BF0A42DCC3825F0FDE98FF0A42C54
:4001C000CD35F0FCEB8EF0A4FEA9F0EB8FF0A4CFC5F02ECD39FEE43CFCEAA42DCE35F0FDE43CFC2275F008758200EF2FFFEE33FECD33CDCC33CCC58233C5829BED9AEC9904
:40020000E58298400CF582EE9BFEED9AFDEC99FC0FD5F0D6E4CEFBE4CDFAE4CCF9A88222B800C1B90059BA002DEC8BF084CFCECDFCE5F0CBF97818EF2FFFEE33FEED33FD34
:40024000EC33FCEB33FB10D703994004EB99FB0FD8E5E4F9FA227818EF2FFFEE33FEED33FDEC33FCC933C910D7059BE99A4007EC9BFCE99AF90FD8E0E4C9FAE4CCFB227576
:40028000F010EF2FFFEE33FEED33FDCC33CCC833C810D7079BEC9AE899400AED9BFDEC9AFCE899F80FD5F0DAE4CDFBE4CCFAE4C8F922EF5BFFEE5AFEED59FDEC58FC22EF0F
:4002C0004BFFEE4AFEED49FDEC48FC22CFF4CFCEF4CECDF4CDCCF4CC22EB9FF5F0EA9E42F0E99D42F0EC6480C864809845F022EB9FF5F0EA9E42F0E99D42F0E89C45F02293
:40030000E8600FECC313FCED13FDEE13FEEF13FFD8F122E8600FEFC333FFEE33FEED33FDEC33FCD8F122BB010789828A830203605005E9F8020772BBFE05E9F802077E89A3
:40034000828A8302036CBB010789828A830204125005E9F802078ABBFE05E9F802079622E0FCA3E0FDA3E0FEA3E0FF22E493FC740193FD740293FE740393FF22E0F8A3E0DB
:40038000F9A3E0FAA3E0FB227401FF3395E0FEFDFC080808E6CF2FF618E6CE3EF618E6CD3DF618E6CC3CF6227401FF3395E0FEFDFCA3A3A3E0CF2FF0E58215827002158334
:4003C000E0CE3EF0E582158270021583E0CD3DF0E582158270021583E0CC3CF0227401FF3395E0FEFDFCA3A3A3E02FFFF0E582158270021583E03EFEF0E5821582700215AA
:4004000083E03DFDF0E582158270021583E03CFCF022ECF0A3EDF0A3EEF0A3EFF022A42582F582E5F03583F58322FAE6FB0808E6F925F0F618E6CA3AF622E0FBA3E0FAA3A9
:40044000E0F922F8E0FBA3A3E0F925F0F0E582158270021583E0FA38F022EBF0A3EAF0A3E9F022E493FB740193FA740293F922BB010789828A8302043A5005E9F80207A2D4
:40048000BBFE05E9F80207B489828A83020463BB011A89828A83D0F0D0E0F8D0E0F9D0E0FAD0E0FBE8C0E0C0F002045A5016E9F8D083D082D0E0F9D0E0FAD0E0FBC082C087
:4004C000830207ABBBFE16E9F8D083D082D0E0F9D0E0FAD0E0FBC082C0830207BD22D083D082F8E4937012740193700DA3A393F8740193F5828883E4737402936860EFA3D5
:40050000A3A380DFD083D082E4937012740193700DA3A393F8740193F5828883E4737402936C70127403936D700C7404936E70067405936F60DDA3A3A3A3A3A380CAE509A6
:400540002582F582E5083583F583B508048582092210AF06858209F50822858209F508D2AF22EC8EF0A4CCC5F0CCCDF8EFA4CEC5F02DFDE43CFCE8A42EC8C5F03DFDE43C9C
:40058000FCEFA4FFE5F028FEE43DFDE43CFC22EF4E6012EF60010EEDBB010B89828A83F0A3DFFCDEFA2289F05007F709DFFCA9F022BBFEFCF309DFFCA9F022E709F608DF9B
:4005C000FA8046E709F208DFFA803E88828C83E709F0A3DFFA8032E309F608DFFA806EE309F208DFFA806688828C83E309F0A3DFFA805A89828A83E0A3F608DFFA804E8929
:40060000828A83E0A3F208DFFA804280D280FA80C680D4805580F28029801080A680EA809A80A880DA80E280CA802988848C8589828A83E493A30586F0A30586DFF5DEF30F
:40064000800B89828A83E493A3F608DFF9ECFAA9F0EDFB2288848C8589828A83E0A30586F0A30586DFF6DEF480E389828A83E493A3F208DFF980D688F0EF60010E4E60CD48
:4006800088F0ED2402B4040050C3F582EB2402B4040050B9232345822390060B73E709F60870FA8046E709F20870FA803E88828C83E709F0A370FA8074E309F60870FA8059
:4006C0006CE309F20870FA806488828C83E309F0A370FA805889828A83E0A3F60870FA804C89828A83E0A3F20870FA804080D280FA80C680D4805180F28027801080A6806C
:40070000EA809A80A880DA80E280CA802788848C8589828A83E493A30586F0A3058670F5800B89828A83E493A3F60870F9ECFAA9F0EDFB2288848C8589828A83E0A3058693
:40074000F0A3058670F680E589828A83E493A3F20870F980D888F0ED2402B4040050CEF582EB2402B4040050C423234582239006ED73E6FC08E6FD08E6FE08E6FF22E2FC22
:4007800008E2FD08E2FE08E2FF22ECF608EDF608EEF608EFF622ECF208EDF208EEF208EFF222E6FB08E6FA08E6F922EBF608EAF608E9F622E2FB08E2FA08E2F922EBF20890
:4007C000EAF208E9F222901000EFF0E4F53DF53EF53FF540F541EF7003D38001C39200901000E0700374FFF012ADEFD2AF9044F4E054FDF0E4F539F54775480075493590AA
:400800001000E0F54A7B017A1079017D2C7C011265F58F3CE53C64107003020C3DE53C64057003020C3DC3E5369407E53594004008901001E064016005753904806D7A102E
:4008400079037B0112AEF28E3D8F3E74052FF58274103EFAA9827B0112AEF28E3A8F3BE53E2407FFE4353DFED3EF9536EE9535400575390380357407253EF5827410353D94
:40088000F583E064176005753904801F7B017A107901E53E2404FDE4353DFC129D65EF653B7003EE653A6003753908E4F537F538E5396003020C30901005E0F5347539047D
:4008C000901002E01204DE08E631091132097B340A74350A7C370AA938099E390AE43A0C193B00000C2D200003020C30E53E453D6003020C30F53775380112554CEF7004CC
:400900007F0180027F00901005EFF0E4F539020C30200003020C30E53E6401453D6003020C30E534C394015033E53470149015B312043A120326E4FB7A01F9F812022080E3
:4009400005E4FFFEFDFC8E218F22901005EFF0E521A3F0A374FFF0E4A3F08013E534B4400EE4901005F0A3F0A37480F0E4A3F0753700753804E4F539020C3030000BE53EDB
:400980006403453D6003020C30753F017540207E017F207D007B017A11792D12058F200003020C30C3E53E9403E53D94005003020C30E53E24FDFFE53D34FFFE742D254074
:4009C000F97411353FA801FC7D017B017A107908120677E53E24FDFFE53D34FFFEEF2540F540EE353FF53FE534D3943F40067E007F1080047E017F208E3D8F3EE540653E03
:400A00007004E53F653D70617A1079067B0112AEF28E3F8F40E541702A7E017F20FD7B017A12795912058F7B017A12795990138F7401F0A37420F07DFF7C00E4FF1284D89C
:400A40007541017B017A11792D90138FE53DF0A3E53EF0AD40AC3FAF341284D8EF60047F0A80027F008F398003753903E4F53FF540020C30E4F53FF540020C3DE4F539AE33
:400A80003DAF3E742D2540F97411353FA801FC7D017B017A107905120677E53E2540F540E53D353FF53F020C30E53E453D6003020C3078237C00FD7BFF7ABF79BFFE7F084F
:400AC000120677D200753700753808AE37AF3878057C107D017B007A007923120677E4F539020C30200003020C30E53E6403453D6003020C307A1079067B0112AEF28E2B73
:400B00008F2C7C017D00120562C004C005C006C007AF34E4FCFDFEFBFA7901F8120195D003D002D001D00012017A8F308E2F8D2E8C2DE4F549754801F547F54612A35C8FEA
:400B400031AF34E4FCFDFEFBFA7901F8120195E47B08FAF9F8120220E42FFFE43EFEED3408FDE43CFCC004A905AA06AB07AE2BAF2C7C007D20120562D00012017A8F308EB9
:400B80002F8D2E8C2DE4F532F533C3E5339420E5329400502AE4E5332530FFE532352FFEE4352EFDE4352DA907AA06AB0512AF8BEF2531F5310533E5337002053280CBE568
:400BC000347044AE2BAF2CFCFD7BFFFAF9F8C31202EF7033E52C30E0047F0080027F01901259EFF0FEC374D09400FF74FF9E8F82F583E493FFC3E5319FF53190FFD1E493F5
:400C0000FFC3E5319FF531E531F404901005F0E4F539F537753801801712554CEF70069046FA7480F09046F67401F080107539057C107D01AB38AA37AF391277D730000368
:400C40000207F422EFF09014BCE475F0011201049014BEE0FEA3E02404F582E43EF58322E0FAA3E0FB2437F582E43AF583120360EF2401FFE43EFEE43DFDE43C22E4FFFEEE
:400C8000FDFC12037CC30202EF9013B7E0FAA3E02423F582E43AF583020412901484120360901492120412901482E0FFA3E0901496CFF0A3EFF090147CE0FCA3E0FD9014B3
:400CC0007AE0FEA3E0FF22120360EF24FFFFEE34FFFEED34FFFDEC34FFFC22A804A905AB07AA06E0FEA3E022120412900000E0FCA3E0900000FDE0FEA3E0FF22EEF0A3EF24
:400D0000F0A3ECF0A3EDF022F9120360A801120300EB2410F582E43AF58322FF9013B5E03400FE22FEFDFC120412901404E0FCA3E0901402FDE0FEA3E0FF22E0FEA3E024CD
:400D4000FFFFEE34FFFE22E0FCA3E02406F582E43CF58322FC9014BEE0FAA3E09014F6F97B0102045A1202BF9014C01204129014AE0203609014EBE475F00112010485F0D5
:400D800082F583E0FFE4FCFDFE2212037C901400E0FEA3E0FFE4FCFD2212041290147CE0FCA3E090147AFDE0FEA3E0FF2290148812036090147E12037CD30202EF12041243
:400DC000901406E0FEA3E022120360EC4D4E4F229014E51203609014E112037C02017A9014C012037C9014BCE0FEA3E0F5828E8322120412901490E0FCA3E090148EFDE09E
:400E0000FEA3E0FF229014A8E0FEA3E0AA06F97B012212036074FFFBFAF9F8C30202EF1203609013B7E0FAA3E022FEF0A3EFF08E83241EF582E43583F583221203609014C1
:400E4000AA0204129014841203609014DA020412A804A905AA06AB07E0FEA3E022E4FFFEFDFC020412E4FCFD120412E4FFFEFD22A3F0900000E0FEA3E0FF2290140AE0FC18
:400E8000A3E0901408FDE0FEA3E0FF22EEF0A3EFF0240EFFE43E229014BEE0FEA3E022120412900000E0FEA3E022900000E475F0010201041202BF900000E0FAA3E02212BA
:400EC0000412900000E0FEA3E022900000E475F00102044390140412043AE92404F9E43AFA120130AEF07803229014BCE0FEA3E0FF227B007A00790002045A9000001203B9
:400F00007C020195FFFEFDFCE0FAA3E022E49013B87BFF7AAF79A3F022FFFEFDFC0204121203609014F00204129014BEE0FAA3E02212043A0203461202BF9014DE02041200
:400F4000E47F02FEFDFC90147E22E4FCFD02037C90000012043A02001A90000012043AAE02AF0122F0EF240EFFE43E22A804A905AA06AB07229013ADE0FEA3E0FF22E0FF32
:400F8000A3E09014BCCFF0A3EFF022E0FFA3E09014F7CFF0A3EFF022120360900000120412900000221203609014AE020412EEF0A3EFF0E4221203609014BB120412E47F08
:400FC000012290000012036090000022901492E0FEA3E0242F229014BCE0FCA3E0F5828C8322900000E0FEA3E0221204129013B6E0229013B9E0FEA3E02290148CE0FEA37E
:40100000E0221203609014D81204127B01229014C3E0FEA3E0221203609014C71204127B0122CFF0A3EFF090141102036074FF900000F0A3F022901490E0FCA3E090148E9F
:4010400022E9241EF9E43AFA02001A9014F0020360F9120360A801020300FFE0FCA3E0FD22120360020187901402020360120360900000020412120360900000020412E040
:40108000FEA3E0241E229014EF0203609014DE02037C901484020412EEF0A3EFF0F5828E8322F0900000E0FEA3E0FF22E49015A6F09015A6E0FEC39409505E75F00BEE90C0
:4010C000186E12041EE4F075F00BEE90187012041EE4F075F00BEE90186F12041EE4F075F00BEE90187112041EE4F075F00BEE90187312041EE4F075F00BEE9018761204D5
:401100001EE4F0A3F075F00BEE90187812041EE4F09015A6E004F08098EF602FE49015A8F09015A8E0FFC39401502074D12FF582E43418F583E4F074DE2FF582E43418F556
:4011400083E4F09015A8E004F080D6901869E0D3940050030214EFE014FF12AABF9015A912045A9015A912043AE92401F9E43AFA12046FE92407F9E43AFA12001A5440603E
:4011800009901868E04401F08007901868E054FEF09015AAE475F0041201049015A912043A12001A9015A6F09015A87401F09015A8E0C39409400302132AA312043AE924CF
:4011C00001F9E43AFA12046F9015AC12045AE49015A7F09015A6E0FFA3E0C39F40030213219015AC12043AE92402F9E43AFA12001A547FFF9015A8E06F7001E460030213C7
:401200000E9015AC12043AE92404F9E43AFA120130FFAEF09015A8E075F00B90187612041EE0FCA3E0C39FEC9E50129015A8E075F00B90187612041EEEF0A3EFF09015ACC1
:4012400012043AE92401F9E43AFA12001AFF9015AC12043A12001A24D1F582E43418F583E06F600302130EE92403F9E43AFA12001A5403640170047F0180027F009015ACCF
:4012800012043AE92402F9E43AFA12001A30E7289015A8E0FE75F00B90186F12041E7401F0EF60047D0780027D0D75F00BEE90187312041EEDF080259015A8E0FE75F00B5B
:4012C00090186F12041EE4F0EF60047F0580027F0975F00BEE90187312041EEFF012001AFF9015A8E0FE75F00B90187212041EEFF09015AC12043AE92403F9E43AFA12009B
:401300001AFF75F00BEE90186E12041EEFF09015A7E004F09015ADE475F0071201040211D39015A8E004F00211AE9015A912043AE92401F9E43AFA12046F9015AC12045A69
:40134000E49015A8F09015A6E0FF9015A8E0C39F50339015AC12043A12001AFFE92402F9E43AFA12001A547F75F00B90187812041EEFF09015A8E004F09015ADE475F007BF
:4013800012010480C01293479018DBEEF0A3EFF0E4FBFA9015A604F0E4A3F0A3F09015A8E0FFC3948040030214EF74802FF582E43460F583740CF09015A6E0FE75F00B9077
:4013C000187312041EE0603375F00BEE90187212041EE0548060129015A8E0240EF582E43460F583740CF080229015A8E0240EF582E43460F5837408F080109015A8E024FE
:401400000EF582E43460F5837480F09015A6E0FD75F00B90187412041EEAF0A3EBF075F00BED90187612041EE0FEA3E02BFBEE3AFA75F00BED90187612041EE0FEA3E0EEBD
:40144000FF9015A8E0FC240CF582E43460F583EFF075F00BED90187612041EE0A3E0FF740D2CF582E43460F583EFF075F00BED90187412041EE0A3E0FF9015A8E0FC2486E8
:40148000F582E43460F583EFF075F00BED90187412041EE0FEA3E0EEFF74872CF582E43460F583EFF075F00BED90187412041EE0A3E0FF9015A8E0FC2484F582E43460F5BA
:4014C00083EFF075F00BED90187412041EE0FEA3E0EEFF74852CF582E43460F583EFF09015A6E004F09015A8E02410F002139D90600A74FFF0229013B312045A9013B6EC78
:40150000F0FAA3EDF0FB74FF9013E51242BB8B828A83E0FEA3E0FF9013D4EEF0A3EFF0240812418CE0FEA3E0FF9013D6EEF0FAA3EFF0FB9013C31241FB9013C7124193901E
:4015400013CF1241FB7E137FDAAD03AC021292EDE49013D8F0A31242037C137DDA7B017A1379BB9013F412045A7A1379BE9013F712045A9013B312043A125413EF70028021
:4015800075E49013D3F09013B6E0FEA3E0240912418CE09013C2F07C137DDAC004C005E490140FF0A3F09013BE12431AE4901415F07B017A1379E5A312045A9013BB12049D
:4015C0003A124204D005D0041287491242A96030124271240B12418CE09013E9F020E4169013E0E0FCA3E0FDC3EF9DFFEE9C1241C0120412800A7E137FDA12ABF97F01223A
:401600009013B8E070030217359013D8E07002A3E070030217249018F20216BE1242C2FF4E70030216CD8F828E83E0FEA3E04E70030216B61242C2240812418CE060779009
:4016400013E9124232E0FEA3E0240BFFE43EFE9013EBF0A3EFF08E83240CF582E43583F583E0FEA3E09013C31242D1C31202D970459013EBE0FEA3E0240812418C1241D7F8
:401680001241B970319013E9124230E0FEA3E0240812418CE0FEA3E0FF9013D6E0FCA3E0FDEFB50511EEB5040D12418374FFF0A374F7F00218C61242C2240A12418CE0FF45
:4016C000A3E09013E9CFF0A3EFF002161C1242047C137DDAA3E0FAA3E0FB9013F37401F01268B0EF600B12418374FFF0A3F00218C67C137DDAC004C0059013BE120360902D
:4017000013F11204129013E51203609013F5120412124204D005D0041275D8E49013D8F0A3F080119013BAE0FF9013B9E04F70059013D304F09013B9E060621242714E60D6
:4017400051EF240B12418CE030E01D9013C2E05415601512418374FFF0A374FAF09013BAE070059013D304F0124271129D249013CB1204129013D9E0241CFF9013D8E0343D
:4017800000FE12A74E9013CF120412E49013BAF0800B9013BAE070059013D304F09013BAE0640160030218479013D8E07002A3E06003021844127B109013E91204127C135B
:4017C0007DDAC004C0059013BB12043A9013BE1203609013F4120412E49013F81242BB9013FC7420F0E4FFFEFDFCA31204129013E9120360901401EEF0A3EFF09013E912CC
:4018000003607810120300901403EEF0A3EF124203D005D00412239A1242A9601C9013E0E0FEA3E0FF9013D8E0FCA3E0C39FFFEC9E1241C012041280031243239013CF12E7
:40184000419380031243239013C71203609013D4E0FAA3E0FB24131241AD1204129013C3120360EB24171241ADEEF0A3EFF074FFFFFEFDFCEB240B1241AD1204129013CB12
:401880001203608B828A831204129013CF120360EB24041241AD1204129013C2E030E0119013D4E0FEA3E0240412418C1203608005E4FFFEFDFC9013B6E0FAA3E0F5828A7F
:4018C00083A3A3120412124183E0FEA3C3EE6480948050031243237E137FDA12ABF99013D3E0FF229013B3120CFC24FEFFEC3401FE12AE2FEF64557003EE64AA6003021BDF
:40190000D59013B6E0240B120D1B12AE2F9013B9EEF0A3EFF0EE54FE60159018EFE0FEA3E0FFD39013BAE09F9013B9E09E4003021BD59013B5E0FCA3E0FD2410120D4DE0E7
:4019400064026003021BD5ED240D120D4DE09013CFF07003FEFF229013B4E0240EFF9013B3E03400FE9013B7F0A3EFF07B3D7A00E4FDFC12A1AC9013B6E02413120D1B1288
:40198000AE2F9013BF120E65FC9013BF120C8270129013B6E02420120D1B12A74E9013BF1204129013B6E02416120D1B12AE2F9013C7120E65FC9013C7120C8270359013C2
:4019C000B6E02428120D1B121C76548F6003021BD59013B6E02424120D1B12A74E9013C7120FEA242C120D1B12A74E120E222414120C929013BF120E1FFBF5828A831204C7
:401A0000129013C7120360EB2410120C92EB241D120D147402F09013CFE0FFEB241C120D14EFF09013B6E0240E120D1B121C8E241A120D4DEEF0A3EFF09013B6E0241112A8
:401A40000D1B121C8EFD2418120D4DEEF0A3EFF0120FF2FFED2404120D4DEEF0A3EFF0ED241D120D4D120D839013C7120EFE9013B7120E50241A120C59120D9012017A907B
:401A800013CB120412120FF27805CEC313CE13D8F9FDAC069013B7E0FEA3E02418120C59E0FEA3E0FF120079E4FCFD9013CB120DD99013BB1204129013BB120E1F2408128E
:401AC0000C929013D0E4F0A37409F09013D0E0FAA3E0FBC39410EA648094805039E47F01FEFDFCA903A801120313120F6C9013B9120D90C31202D970159013D0E0FEA3E0DB
:401B0000FF9013B7120D47EEF0A3EFF080089013D0120EAD80B59013BB12037C9013BF121061C0079013CFE0FBE4FAF9F8D0071202209013C31204129013C3120E1F241F51
:401B4000120C92120FF2FF9013CFE0FD7C00120562120E22240C120C929013C3120360129F96A907120E22FB241E120D14E9F06420600C9013CB120360EB2414120C9274C6
:401B8000FFFFFEFDFC120C89E964206003021C659013B6E02430120D1B121C769013D2E0FCA3E0FD9013B7E0FEA3E0242B120C59ECF0A3EDF0AF05AE04E4FCFD9014F31231
:401BC00004129013B5120F8B9013B3E0FEA3E0FF12A7795004E4FEFF229013B5E0FEA3E0FF12A74E9013D4120FEA24E4121C6A9013D8120FEA24FC121C6A9013DC120412C6
:401C00007F527E527D617C419013D4120C8270557F727E727D417C619013D8120C827045FFFE7D557CAA9013DC120C8270379013B6E024EC121C82120E222427120C9290BF
:401C400013B6E024E8121C829013E01204129013C31203609013E0120DB650099013E0120360120C897E007F0122FF9013B5E03401FE12A74E2212AE2F9013D2EEF0A3EFA2
:401C8000F022FF9013B5E03401FE12A74E2212AE2F9013B7E0FCA3E022E490159FF0FBFAF9A312045AE49018D2F0A3F0906000E0548064806003021EDFA3E07003021E2299
:401CC00024F87003021E9624FE7003021EB424046003022025906003E0B4012D12AEA09015A312045AE92401F9E43AFA12046F9018D412045A9018D2E4F0A37412F0129CF2
:401D00005F90159FEFF0022025906003E06402705C906002E0FF12AABF9015A312045A9015A312043AE92401F9E43AFA12046F9018D412045A9018D412043AE92403F9E4F0
:401D40003AFA12001AFE9018D412043AE92402F9E43AFA12001AFDEEEDFF9018D2EEF0A3EFF0129C5F90159FEFF0022025906003E064036003021E17FF7BFF7ABE79A8908F
:401D800015A012045A906002E0D39F401B9015A012043A12001A601012001AFD9015A1E48DF01201040F80DD906002E0B4EE0C7BFF7ABF79809015A012045A906002E060C8
:401DC0002B90BE7DE493FF906002E0B5071E7BFF7ABE79FB9015A012045A9019D1E0600C9019CE12043A9015A012045A9015A012043A12001A700302202512001AFF901860
:401E0000D2E4F0A3EFF09018D412045A129C5F90159FEFF00220251298C090159FEFF0022025906000E05403603E24FE60030220259018D2E4F0A37402F0906004E0547FB4
:401E400075F00B90187012041EE09019CCF0E4A3F07B017A1979CC9018D412045A129C5F90159FEFF00220259018D2E4F0A37402F0901868E09019CCF0E4A3F07B017A1901
:401E800079CC9018D412045A129C5F90159FEFF00220250220259018D2E4F0A304F0FB7A1879699018D412045A129C5F90159FEFF00220259018D2E4F0A304F0906004E0C3
:401EC0007E0024D1F9EE3418FA7B019018D412045A129C5F90159FEFF0022025022025906001E014606324FE7003021FC024FA601E24FE603724066003022025906002E003
:401F00009018DFF012ADD790159FEFF0022025906002E0901869F09018DD7401F0FF1210AC12ADD790159FEFF0022025128A81EF70030220259018DD7401F0122FE712AD09
:401F4000D790159FEFF0022025906000E05403601D146037146003022025906002E06003022025127FF290159FEFF0022025906002E064016003022025901868E054FDF098
:401F800012ADD790159FEFF0022025906004E0C394014003022025E02464F582E43418F583C083C082E0FF906002E0F4FEEF5ED082D083F012ADD790159FEFF08067806555
:401FC000906000E05403601614602C147057906002E070511281B290159FEFF08047906002E06401703F901868E04402F012ADD790159FEFF0802E906004E0C394015025F3
:40200000E02464F582E43418F583C083C082E0FF906002E0F4FEEF5ED082D083F012ADD790159FEFF090159FE0FF2290153EECF0A3EDF090153CEEF0A3EFF0E4901566F0B2
:40204000A3F07C157D631252CD9205300502D322123C4AE0FF123A8BE0901562F0123C0BA3E0B401117B7F7D7E12236A901564EEF0A3EFF08007E4901564F0A3F0901566A2
:40208000E07002A3E06009123C4A123B2A127309123BC4123A8B123B835403FF7802C333CE33CED8F9244EF58274913EF58312036C90154A1204127E00EB54787803CEA2CB
:4020C000E713CE13D8F8FF123B18741E2FF58274913EF583E493FFE4FCFDFE12019590154A12041290154A120360AD07AC06901562E0FF127E2690154A123B42E4FF123BBA
:4021000015C31202EF7002D322123BC4F5828E83123B8354077802C333CE33CED8F9242EF58274913EF58312036C901542120412EBAE027803CEA2E713CE13D8F87E005472
:402140000F241EF582EE3491F583E493FF90154E123C57E4FFFEFDFC90154E123BAD7002D32290154E120360123B1812019590154212037C120220123C5190155212037CE8
:40218000123BC4123A8BE075F064A4FFAEF0E4FCFD12017A123AD4E47B64FAF9F8120195123AD47803120300123C51E47F64123B15120195901556120412901556120360BA
:4021C0007803120300901556123AD790155612037CD31202EF4009123ADA9015561204127B1C7D1A12236AE4FCFD901546123AD7C004C005C006C007901546120360A9075F
:40220000D007D006D005D004A801120313123C51E47FFA123B1512019590155A12041290155A120360780312030090155A123AD790155A12037CD31202EF4009123ADA90BF
:40224000155A120412901564E07002A3E060030222DD7B537D5012237A74017E00A807088005C333CE33CED8F9EEC313FF7E00901546123C5790154612037CC000C001C0E8
:4022800002C0037B317D2F12237AEF2402FF74017E00A807088005C333CE33CED8F9FFEE3395E0FDFCD003D002D001D0001201959015461204127B497D3E12238AEF240198
:4022C000FFE43E123B3E90155E12036090154612037C12019590155E1204128032901564E07004A3E0640170247B457D3012238AEF7F0025E025E0123B3E901563E0600F5A
:40230000123C4AE0123A8BA37402F08002D322901556123C2BFB123B3390155A120360EB240E123B35123BC4FF7B0D7A007D0C7C0012AF7EC007901562E0FF12AEC2D0E097
:402340004F90153C123C18F5828C83A3EFF0ED2404F582E43CF5837402F0A3E4F090155E123C2B2406123B35C32290153EE0FEA3E0FF7A007C0012AF7E2290153EE0FEA3B3
:40238000E0FF7A007C0012AF7E2290153EE0FEA3E0FF7A007C0012AF7E229013ED1236D5A312045A12AD43D3EF94FFEE940040030225BE12378EE4FDFC128F2A90143BEE40
:4023C000F0FCA3EFF0FD12378E12A42C50030225BE9013EEE0240EFE9013EDE03400901429F0A3CEF012378E90143BE0FCA3E0FD12ACA49014051237CB901439F0A3F07E0F
:40240000147F3D7B207A00E4FDFC12A1AC12378A901439E0FDA3E0CD1226EA7A147B2D9013F41203609014721204129014767414F0A3743DF0901439E0FFA3E0901478CFFC
:40244000F0A3EF12371512432AAD07AC06C3EC64809480400912378AEC1226EA8021C390143AE094E8901439E06480948340030225BE901439740175F00012010480807CFE
:40248000147D09C004C0059013F412374A1237BAFFD005D004128D17E4901407F0A3F012368C7A147B0912323990142BEEF0A3EFF04E60030225C29013F41238301202EF1C
:4024C00070121237BA24181236CEE0FEA3E04E60030225BE9014091203609014701204127B007A00790090147412045A12371612808A9014621204129014621203609014F2
:4025000070120412E4901474F0A31237151286CE90145E123727FF12AF3B90145E120360EC4D4E4F70030225BE12372A24061236CEE0FEA3E0FF901429E0FCA3E024041225
:40254000379DFAA3E0FBE4FDFC12A1AC90145E1203609014B91237B7FF129EA09014661237B7241C1236CEE014FF90146AE4F0A3EFF090146A123877EC648094804029AF2E
:4025800005AE0412388490146612037C12017A9014FB123727FF129CE312372AFF128F8F90146A1236E180CA12372A24061236CEE0FFA3E090142BCFF0A3EFF08004E4FE21
:4025C000FF2290142B1236F8E090145DF06005E064E57035901407E07002A3E0701278197C147D017B017A147909FE7F10120677901407E475F00112011AFE901405E0B500
:40260000060EA3E0B5F0098011E4901407F0A3F07E147F0912AA3502249F7E147F2D12A69E901438EFF012368C1226DA4E7003FEFF2290142BE0FEA3E0FF12378E90143BE8
:4026400012381A901405E0FDA3E0901473CDF0A3EDF0901438E0901475F012502E12372AFF12A0F97E147F1912AA359014051236E145F070B112368C1226DAC006C0077BF6
:40268000017A14792D9013F81203609014711204129013FCE0901475F09013FD120360901476120412901401E0FFA3E090147ACFF0A3EFF0901403E0FFA3E090147CCFF06B
:4026C000A3EFF0D007D0061273C212372AFF12A0F990142BE0FEA3E0FF227A147B1912323990142BEEF0A3EFF022901471F0A3EDF0123E27229014A6120CFCE4FFFEFDFCAA
:40270000A3120C8270037F01229014A7E0240EFE9014A6E034009014BEF0A3CEF0120E97241E120C59E0FFC0079014AA120F20D00712A7CD9014B6120412120F29FB2406E2
:40274000120D14A3E09014B6120D08120DB650037F0122120E972406120C59A3E09014B61210519014BE120CDB241A120C59120D9012017A9014B2120412120E05C003C03E
:4027800002C0019014B2120360120D55D001D002D0031229FD2409120C59E060037F0122120C50120D3B9014B6120F4A1202B29014BAEEF0A3EFF09014A8120D47E0FCA39E
:4027C000E02FFFEC3E9014BCF0A3EFF09014AE120C7D701B120E972427120C591203609014AA120C8250179014AA12036080079014AA120C6DFC120F292427120C92120E90
:4028000097241E120C59E024F0601C24F07031120EE912A74E120D689014C6120412120EE912A7F7022954120EE912AE2FE4FCFD120D68AD07AC06120EE912ACDC022954DE
:402840009014A8E0FEA3E0FF12A0F99014AA120360EF5401FFE4FDFCEF607F120DE5E0C4540FFFE4FE120D68EF540FFFE4FEFDFC78041203139014BC120CDBF5828E83E04C
:40288000540FFFE4FCFDFE1202BF120FD6120C44120D3B9014BAE06E7003A3E06F7023120E05C003C002C0019014B2120C6D120D54D001D002D0031229FD2406120C591291
:4028C0000F7E120DDFE075F010A4FFAEF0E4FCFD120D65780412030080759014BCE0FAA3E0FBF5828A83120D83120D688B828A83120C44120D3B9014BAE06E7003A3E06F84
:402900007026120E05C003C002C0019014B2120C6D120D54D001D002D00312A872122A132406120C59120F7E120DDF7F00E4FCFDFE120D657808120300EF540FFBE4FAF97C
:40294000F8120DE5E054F0FFE4FCFDFE1202BF120FD6EFF0122A26FF241E120C59E06420705CEF242D120C59E0FEA3E04E704F120E97242B120C59120D909014FB12041252
:402980009014A8E0FEA3E0FF129CE3122A132406120C59E0FEA3E024E8FFEE3401FEC006C00774FF9014C6120F19D007D00612A7F7122A26242D120C59E4F0A304F0120EA7
:4029C000972423120C59120E12602F9014C0120DC8600E120F29FB2423120C67FCEB120C90120D6EEC4D4E4F6010120F29FB2423120D14120CC7EB120C907F002212A87285
:402A00009014A8E0FEA3E0FF1288B49014A8E0FEA3E0229014A8E0FEA3E0FF1288B49014A8E0FEA3E0229014A8E0FEA3E0FF12A0F99014BEE0FEA3E0229013B8127C7EF56C
:402A4000828A83E0FEA3E0FF9013D6EEF0A3EFF02408127C5AE0FEA3E0240EFFE43EFE9013D8F0A3EFF08E83240CF582E43583F5831203609013C4120412E49013C2F0A32F
:402A8000F0FF127C9F74FFFF9013DA127CA2127CCBAA06F97B019013E212045AD2009013BCE0FEA3E0FF9013C0E0FCA3E0FD125681EF4E6003022D2D9013D6E0FEA3E02435
:402AC0000B127C5A127C619013C412037C1201959013CC120412127C72A3A312037C9013CC120360127CDB127C9012037CD31202EF4006127C90120412127C51E0FEA3E048
:402B000024FFFFEE34FFFEE4FCFD9013BC127CB01202B29013D0EEF0A3EFF09013D6E0FEA3E0240F127C5A1203609014B91204129013D8E0FEA3E0FF129EA0127CE4901312
:402B4000D212037CC000C001C002C003127C72A3A31203609013D8E0FAA3E02406F582E43AF583A3E0F9F8120300A804A905AA06AB079013D8E0FEA3E0241C127C5AE014E5
:402B8000FFE4FCFDFE1202B2D003D002D001D00012017A127CE4127C51E0FEA3E0FF9013D0E0FCA3E0FDC3EF9DFFEE9CFE9013E8F0A3EFF0127C9812037CC31202EF500B77
:402BC000127CEA9013E8EEF0A3EFF0300014127C51E0FEA3E0FF9013E8E06E7003A3E06F60619013D21203609014FB120412127CCBFF129CE3127CCBFF1288B45003022D2E
:402C00002D9013B8E0FEA3E0FF9013BEE0FCA3E02406F582E43CF583E0FCA3E0FD9013D0E0FAA3E0FBED2BFDEC3AFAA9057B019013E8E0FDA3E090148CCDF0A3EDF0129B28
:402C40005280569013DE1203609013DA12037C12017A9013D212037CC31202EF602F122D365004E4FEFF229013D21203609013DA120412E47F01127C9F9013B8E0FEA3E098
:402C8000AA06F97B019013E512045A800C9013DE127C619013DE120412127CD3FF9013B8EE8FF0120104127CEAC006C007127CD3FBAA06E4F9F8D007D006127CDB127CD3B6
:402CC000FFC39013BBE09FF09013BAE09EF09013C2EE8FF01201049013BCE0FCA3E0F5828C83A3A3C083C08212037CE4FCFD12017AD082D0831204129013D2127C61127CC8
:402D0000E4E49013D0F0A3F0127CEAEC4D4E4F6003022B969013BAE07002A3E06003022A9E122D365007E49013C2F0A3F09013C2E0FEA3E0FF227B017A1379DA128B632205
:402D400090138B12045A901389EEF0A3EFF090139DE4F0A3740DF0A3E4F0A3740BF0E49013A7F0A3F0D3EF940DEE9400500C9013A7E4F0A37403F0022FD290138B12043ADD
:402D800012001A643A6003022FC9E92401F9E43AFA12001AFF1294A4EFC454F0FD90138B12043AE92402F9E43AFA12001AFF1294A4EF4DFF90138E12043AEF12005590139C
:402DC0008B12043AE92404F9E43AFA12001AFF1294A47D0090138B12043AE92403F9E43AFA12001AFF1294A4E490138B12043AE92405F9E43AFA12001AFF1294A4EFC454CF
:402E0000F0FD90138B12043AE92406F9E43AFA12001AFF1294A4EF4DFF90139112043AE48FF012015B90138B12043AE92408F9E43AFA12001AFF1294A4EF7D00FC90138B4F
:402E400012043AE92407F9E43AFA12001AFF1294A4EFC454F04CFCE490138B12043AE92409F9E43AFA12001AFF1294A4EF75F010A4FFE5F04CFCEFFD90138B12043AE92490
:402E80000AF9E43AFA12001AFF1294A4ECFEED4FFF9013A5EEF0A3EFF090139712043AEE8FF012015B90138B12043A90138AE024FEFF901389E034FFFEE92FF9EA3EFA1222
:402EC000001AFF1294A4EFC454F0FD90138B12043A90138AE024FFFF901389E034FFFEE92FF9EA3EFA12001AFF1294A4EF4DFF90139A12043AEF12005590139DE0FEA3E02A
:402F0000FFC390138AE09FFD901389E09EFC9013A6E025E0FF9013A5E033FEED6F7002EC6E6003022FBE9013A1F0A3F09013A5E0FEA3E0FF9013A1E0FCA3E0FDC39FEC9E85
:402F40004003022FD2ED25E0FFEC33FE9013A0E02FFF90139FE03EFE9013A3F0A3EFF090138B12043AE92FF9EA3EFA12001AFF1294A4EFC454F0FD90138B12043A9013A4B7
:402F8000E02401FF9013A3E03400FEE92FF9EA3EFA12001AFF1294A4EF4DFF90139412043A9013A1E0FCA3E029F9EA3CFAEF1200559013A1E475F001120104022F2C90136B
:402FC000A7E4F0A37404F080099013A7E4F0A37405F07B007A00790090138B12045A9013A7E0FEA3E0FF22901869E0D394005003023232E014FF12AABF740429F9E43AFA8F
:4030000012001A9015A6F0E92401F9E43AFA12046F9015A912045AE49015A7F09015A6E0FFA3E0C39F40030232329015A912043A12001AFF24DEF582E43418F583E0FE74B3
:40304000D12FF582E43418F583E06E700302321FE92401F9E43AFA12001AFF9015A912043A12001A24D1F582E43418F583E06F600302321FE92402F9E43AFA12001A547FD1
:40308000FD24FFFFE434FFFEEFC4F8540FC868FFEEC454F048AC079015A912043AE92403F9E43AFA12001A5403640170047F0180027F009015A8EFF0A312043AE92402F9EB
:4030C000E43AFA12001A30E72775F00BED90186F12041E7401F09015A8E060047F0780027F0D75F00BED90187312041EEFF0802475F00BED90186F12041EE4F09015A8E044
:4031000060047F0580027F0975F00BED90187312041EEFF0740E2CF582E43460F5837401F09015A912043AE92404F9E43AFA120130FFAEF075F00BED90187612041EEEF06B
:40314000A3EFF09015A912043AE92402F9E43AFA12001AFF75F00BED90187212041EEFF09015A912043AE92403F9E43AFA12001AFF75F00BED90186E12041EEFF075F00B7A
:40318000ED90187112041EE4F075F00BED90187612041EE0FF740C2CF582E43460F583EFF075F00BED90187612041EE0A3E0FF740D2CF582E43460F583EFF075F00BED9090
:4031C000187412041EE0A3E0FF74862CF582E43460F583EFF075F00BED90187412041EE0FF74872CF582E43460F583EFF075F00BED90187412041EE0A3E0FF74842CF5829E
:40320000E43460F583EFF075F00BED90187412041EE0FF74852CF582E43460F583EFF09015A7E004F09015AAE475F00712010402301C90600A74FFF0229014931241EFA309
:40324000EAF0A3EBF0901494E0240EFE901493E034009014AFF0A3CEF08B828A8312427AEB24081241AD1203609014A11204129014A112036078051203139014AF1241A732
:4032800012037C1202209014A912041212421112418C1203609014A91241B9500DE4FFFEFD9014971241A61204129014AF124186E0FEA3E024FBFFEE34FF9014AD12420DAD
:4032C00012418C120360E4FBFAF9F8C31202EF700F901497E0FEA3E0240412418C12427A9014A11203609014ADA3E0F9F81203009014A5120412124283EC4D4E4F700302D3
:40330000338E124249241C12418CE014FF9014B1E412420D12418C12037C9014A91203601201879014B31242E6EC4D4E4F60221242839014BB1242E69014BF12041290142F
:4033400095E0FCA3E09014931242EF129DE412427D9014991241B47003FEFF221242839014B9120412124249FF129EA0C004C005C006C0079014B1E0FEA3E09014A51242F4
:40338000D11202B2D003D002D001D0008049124249241812418CE0FEA3E0FF9014ADA3E0FDEFA805088005CEC313CE13D8F9FFE4FCFD9014B11204129014B1120360901438
:4033C000A51241B9505D124249241412418C1203609014A512037C12017A90149D120412124283901497E0FAA3E0FBF5828A831204129014A9120360EB1241AB12041290FD
:40340000149D1203609014FB120412901495E0FEA3E0FF129CE3901495E0FEA3E0FF1288B45004E4FEFF229014ADA3E0FF74017E00A807088005C333CE33CED8F924FFFF7D
:40344000EE34FFFE3395E0FDFC9014A112037C1202B2E47B20FAF9F8120195901495E0FCA3E024061242DFE0FCA3E02FFFEC3EFE229014191236D5A312045A90141AE02463
:403480000EFE901419E03400901452F0A3CEF0901420E0FCA3E0FD128F2A901420EEF0A3EFF074FF901450F0A3F0123891E0FCA3E0FD12ACA490144C1237FE1237CB901467
:4034C00064F074FFFFFEFDFCA31204127C147D54C004C00590142212374A901452E0FEA3E0FFD005D004128D1790141912368F1236744E70030236701236F5E0FF7009906E
:40350000144AF0A3F0023670EFB4E503023666901450E0FEA3E0FF90144EE0FCA3E0FD6F7002EC6E70030235B2ED4C70030235B27E147F2A12389112381A90144EA3E0FD1F
:40354000901473ECF0A3EDF0E4A3F012502E90144E1237569014207D0D123766ED4C70521236F5E0FF90144DE02440FD90144CE03400FCD3EF9DEC6480F874809840339044
:40358000144AE0FCA3E0FDF5828C83E07003FEFF22ED240B12379D640F700E12368490141912368F12367480D61236841237530234E990144EE07002A3E0605F123782FF1D
:4035C0007C147D2A129737920090144CE0FAA3E0FBA3E0B50220A3E0B5031B123782240D1236CEE0901464F090145C1203609014651204128013123782240D1236CEE0FF16
:40360000901464E06F6002D20090144E2000051236E18052EAF0A3EBF0804B123782FF12A69E901469EFF0901464E0B50714123782240B1236CEE0FF901426E0FEEF5E6EB4
:403640006005123753801F90142712043AEA494B600F90146512036090142712043A120346123782FF227E147F5412AA350234E9E4FEFF227A147B5412323990144AEEF0A4
:40368000A3EFF0227E147F5412AA35229013EDE0FEA3E0A3FFE0FCA3E0FD22901477E0FFA3E475F00112011A85F082F583EFF0901475E475F001020104900000E0FCA3E022
:4036C000AA04F97B0190000012045AEF2414F582E43EF58322EEF0EFA3F0A3ECF0A3EDF02274FFF5F0020104E475F00112011A85F082F5832290144AE0FEA3E0F5828E838E
:4037000022A3F0901478E0FCA3E0FD901471E0F8A3E0C39D22F09013EFE0FCA3E0FD9013EDE0FEA3E0FF221204129013EFE0FEA3E02290146E12043A90147AE0FCA3E02935
:40374000F9EA3CFA901481E4F02212036090149702041290144CE0FFA3E0A3CFF0A3EFF0229014717D0AE0FEA3E0FF7C000200CEFF90146CE03400FE22900000E0FEA3E079
:40378000FF2290144AE0FEA3E0227E147F2D9013F102043A90147AEE8FF0020104F582E43CF583E022FEED34FF901483F0A3CEF02290147A02043A120412901429E0FEA336
:4037C000E022FF90146AE03400FE22EEF0A3EFF0E422900000E0FEA3E022901474F0A3EFF022AB07AA06ED5407FF7401A8070822E0FEA3E0FFC374079FFFE49EFE22EEF0AE
:40380000A3EFF0A3227B0190149602045AE0FFA3E0900000CFF0A3EFF022E0FDA3E0901471CDF0A3EDF0229FEE6480F8E0648022FFFEFDFC12037CC322900000E0FEA3E056
:4038400022F9E43AFA900000E4F022FE12ABBEEF2BFBE43A22F582E43AF58322A3EAF0A3EBF02285F082F583901474E0222BFFEE3A8F82F583E022E0FCA3E0FDC32290142A
:403880006E02043AEE3395E0FDFC2290000002043A90141D12043A90142022E49015A7F0906004E09015A8F0906000E0548064806003023998A3E014605814607014700339
:4038C00002396524FD6003023A80906003E0B4211B1271949018D2E07002A3E07003023A80129C5F9015A7EFF0023A80906003E064226003023A801269949018D2E0700249
:40390000A3E07003023A80129C5F9015A7EFF0023A80124C189018D2E07002A3E07003023A80129C5F9015A7EFF0023A809015A8E0FFC394014003023A80906002E0600341
:40394000023A809018D2F0A304F074DE2FF9E43419FA7B019018D412045A129C5F9015A7EFF0023A809015A8E0FFC394014003023A809018D2E4F0A304F074DF2FF9E4348E
:4039800019FA7B019018D412045A129C5F9015A7EFF0023A80023A80906000E054806003023A80A3E024F66028147003023A5824026003023A80124C189018D2E07002A3AF
:4039C000E07003023A8012A1E49015A7EFF0023A809015A8E0FFC394014003023A80906002E06003023A80A3E0FE74DE2FF582E43419F583EEF074E02FF582E43419F58323
:403A0000E0FE74DE2FF582E43419F583E0C39E50119015A8E024E0F582E43419F583E4F0802C9015A8E0FF24E0F582E43419F583E0D39401401874DE2FF582E43419F58303
:403A4000E0FE74E02FF582E43419F583EEF012ADD79015A7EFF080289015A8E0FFC39401501E906002E094015016E0FE74DF2FF582E43419F583EEF012ADD79015A7EFF0A0
:403A80009015A7E0FF22EEF0A3EFF0F5828E83A3A322E4FFFEFDFC901583020412901539F07C157D397B0190153DE0FF7A002290153DE0FF7D017C0022EF25E024BEF58237
:403AC000E43419F583227C157D6C901574E0FF7B017A002290155212041290155202036090153874FFF5F012010445F02290157DE0FEA3E0FF90156CE05EFEA3E05F9015FD
:403B000072FFEEF0A3EFF022F0EF240AF582E43EF583020360FEFDFC90154A02037C900000E0FF7C007D007A0022E0A3FFE0FCA3E0FD22240AF582E43AF583020412FE90C3
:403B4000155EE4FCFD020412EEF0A3EFF0A3ECF0A3EDF02290151BE0FEA3E0FF22E4FFFEFDFC0204127C157D8F7B017A002290157EE025E0F090157DE033F0901578E00455
:403B8000F00D22A3E0FF7E00901540EEF0FAA3EFF0FB22901526E0FEA3E022EFF09015830203609015741204129015742212037CC30202EF901578E075F064A424D0FEE5CC
:403BC000F034072290153EE0FEA3E022901526E0FEA3E02290151CE0FEA3E02290152EE0FEA3E0229013F102043A9015387407F0A374D0F022901526E0FCA3E0F5828C8365
:403C0000A3A3A322E0FF7B017A00228F828E83A3A322901579020360FFE0FCA3E0FD22120360E4FB7A02F9F802019512036090153CE0FAA3E022FFE0FCA3E0FD7B007A0278
:403C400022E4FBFAF9F8C30202EF90153CE0FEA322901552020412E4FCFD020412E0FEA3E0FF7D007C02229014D8ECF0A3ED120F649014EDF0A3EFF09014ED12107F120CDD
:403C800059E09014EAF0FFC0079014DA120F20D00712A7CD9014E61204129014EDE0FAA3E0FB2406120D14A3E09014E6120D08120DB65003E480549014EDE0FEA3E0240643
:403CC000120C59A3E09014E61210519014ED120E50241A120C59120D9012017A9014E21204129014D8120E08C003C002C0019014E21203609014ED120D58D001D002D003CA
:403D0000123E1CFF1288B4500774FFFFFEFDFC229014ED120C53120D3BE4FCFD9014E612037C1202B2AB079014D8120CE12406120C59E0FEA3E02BFFEE3A9014EBF0A3EF3C
:403D4000F09014EBE475F00112011A120D7E120F3A9014ED120C53120D3BEF6B7002EE6A703E9014D8120E08C003C002C0019014E2120C6DFC9014ED120D58D001D002D0B5
:403D800003123E1CFF1288B49014D8E0FEA3E02406120C59E0FFA3E09014EBCFF0A3EFF012108CC0009014EB120DE8120D837808120313D000120F379014EAE024F4602A11
:403DC00024EC705112108CC000120D747810120313D000120F3712108CC000120D747818120313D0001202BF80289014DA120360EF5401FFE4FEFDFCEF9014DE600A120314
:403E0000607804120300800A120360EE540FFEE4FDFC120F3A9014DE1203602212A8729014D8E0FEA3E02290146C1237FE12045AE4901480F0A3F01244C0EF7003023FD6E6
:403E4000E490147AF090146CE0FEA3E0FF901478EEF0A3EFF07B0B7A007D207C0012A1AC901473E4F0A304F0901471E0FFA3E0901475CF8023901475E0FEA3E0FFC3940A8E
:403E8000EE6480948040179014731236B27C007D0A1200CE901475EEF0A3EFF080D7E4901475F0A3F09014731237F0C3901476E090147512382798504412387E12001AFFCB
:403EC000901477F07E00D3947F74809480500A12AC16901477EFF08006901477745FF090146F1236B2901477E0FF6011EF642E600C129959EF4E60AD12369B80A8901478E5
:403F00001236E8747EF0901473123756123761ED2430FF901477F0901475E0FCA3E0FD901478E0FAA3E02DF582EA3CF583E58224FFF582E58334FFF583EFF0123761901453
:403F400071EEF0A3EFF09014751236E145F070BC901473E0FEA3E0FF90147812379712387EE92401F9E43AFA90146E12045A12387E7D2E7C0012A586EA494B600690147AC3
:403F80007401F0EA494B70D990147AE06048E4901475F0A3F0C3901476E09403901475E064809480503090146EE475F00112044312001A901477F0E0FF7E0012AC16901429
:403FC00077EFF06011901477E0FF129959EF4E60C412369B80BF2290100012045AE4901385F0A3F0A3F0A3F012ADA7EF700C7B017A1679DC129B0DEF60069046F67401F020
:40400000126C267BFF7AB0794590138C12045A90100012043A12AC88AA06A9077B019016D912045A9016D912043AE94A4B700302417A9016D912043AAE02AF011295A0EFF8
:4040400064014E700302417A9016D912043AAE02AF017C107D037B0A7A0012B02E901385EEF0A3EFF04E605C9016D912043AAE02AF01C006C007E47F04FEFDFC9013921240
:404080000412901396E4F0A304F0D007D00612A8EB901385EEF0A3EFF07B017A13798090138E12045A7A13798490139112045A7A1079037F0A7E00125D77901385EEF0A3FF
:4040C000EFF0800D901385E4F0A37402F0FF7E00227B017A10790D127A6F901385EEF0A3EFF04E70717B017A12795A90138E12045A7A120990139112045A7A12795D9013B8
:404100009412045A7A13797D90139712045A7A13797F90139A12045A7A10790D7F4D7E02122D40901385EEF0A3EFF04E702890125BE0FCA3E0FD7B017A12795D90137DE09C
:40414000FFA3E090138FCFF0A3EFF090125AE0FF1284D80240D19016D912043AAE02AF0112AE1B901385EEF0A3EFF09046F67401F0901385E0FEA3E0FF22901385E0FEA3D8
:40418000E0FF229013B6E0FEA3E02406F582E43EF58322E4FFFEFDFC1204129013CBE4FFFEFDFC020412FCE0FAA3E0240CF582E43AF58322E4FFFEFDFC12037CC30202EFAC
:4041C000FE7C007D201200CEEE3395E0FDFC9013C31204129013DA1203609013C722900000E0FCA3E0FD900000E0FEA3E0FF22EEF0A3EFF0A3ECF0A3EDF022E4FFFEFDFCD4
:40420000020412F09013D6E0FEA3E0FF22F0A3EFF0901497E0FEA3E0240C22FF90146CE03400FE22120412900000E0FEA3E0FF22E0FEA3E0F5828E8322E0FEA3E0FFA3127E
:40424000043A90148CE4F0A3229014AFE0FEA3E022FFE0FCA3E0FD22120412900000E0FEA3E022901482E0FFA3E0A3CFF0A3EFF0229013D8E0FEA3E0FF221203609014996C
:40428000020412901499020360C3901483E09FFF901482E09E2290148A12045A90148DE4F0A3229013FA02043A9013D8EEF0A3EFF04E22901454E0FEA3E022FFFEFDFC0213
:4042C00004129013E9E0FEA3E022E475F001020104FFE4FCFD02037CEEF0A3EFF0A322F582E43CF583221204129014B3020360FDE0FEA3E0FF221203609014970204127BEF
:40430000007A00790002045A90147D02043A9013F402043A9013FD02043A1203609014110204129013D37401F02290146C1236D512385CE490148FF0A3F090146DE0240E43
:40434000FF90146CE03400FEC006C0077C147D7DC004C00590147212374AD005D004D007D006128D1790146C12368F7A147B7D123239AA06A9077B0190147A12045A12372A
:40438000B1E94A4B700302447E1237B112001A700302447EAE02AF017B087A007D7E129F59901491EEF0A3EFF0F47002EEF470030244749014911237F090148FF0A3EFF0BB
:4043C000901470E0FCA3E0AA04F9123805C374079F90149AF0E49E901499F01237B112A174EF4E60030244741237B1E92408F9E43AFAC003C002C001901471E02408FF9009
:404400001470E03400FAA907123805901499E4F0A37403F0D001D002D00312A174EF4E70531237B1901491E0FEA3E029F9EA3EFA12001A647E703D1237B1901492E024016F
:40444000FF901491E03400FEE92FF9EA3EFEAF0190148FE0FCA3E0FD12A849901478123877EF9DFFEE9CAD07FC901476E0FEA3E0FF12A9387E147F7D12AA35024365E490D1
:40448000148DF0A3F090148D123877EC9401502B901476E0FEA3E0FF12ACC0EF7015901478E0FEA3E0FF90148EE02FFF90148DE03EFE2290148D1236B280CA7EFF7FFF22C1
:4044C00090147B1242D812045A74FF901484F0A3F0901480E07002A3E0700874FF901480F0A3F07BFF7AB0794290148A12045A12430812AB43EF4E702890147B1242397409
:4045000002F0129B5290147CE02402FF90147BE03400FE7B097A007D207C0012A1AC7F0022E4901482F0A3F0901482E0FCA3E0FD640D4C70037F0122124308E92DF9EA3CAA
:40454000FA12001A901486F06012901480E0FEA3E0FFA3E0B50616A3E0B50711901484E0F47003A3E0F470261242638021901486E0FF129959EF4E70037F0122901486E024
:40458000B42E031242639014821242CA809A901484E0FCA3E0FD4C70037F0122D3ED9408EC940040037F0122901484E0FEA3E0FF124289FED3EF9404EE940040037F012237
:4045C00090147BE0FEA3E0AA06F97B01C003C002C001A312043A1242967408F0901484E0FFA3E090148FCFF0A3EFF0E4A3F0D001D002D00312823E90147CE02408FF9014FB
:404600007BE03400FAA9077B01C003C002C001124308901484E0FEA3E0FF29F9EA3EFAE92401F9E43AFA1242967403F0124289CF24FFCF34FF90148FF0A3EFF0A37401F068
:40464000D001D002D00312823E7F0022F0EF2408F582E43EF583229018EBE0FCA3E0F5828C8375F003EF12041E75F003EEA42583F5832275F007EF12041EEE75F007A42522
:4046800083F583E49322E47FF37E03FDFC900000120412E4FFFEFDFC9000001204129000007B007A00790002045AE0FCA3E0FD2404F582E43CF58322E0FAA3E0FB240AF5BE
:4046C00082E43AF583229013A81203609013A0E0FAA3E0F5828A8322900000E0FEA3E0FF22E0FCA3E0AA04F97B01229014FF12043AE9229013B3E0FEA3E022E475F00102A1
:4047000001049013B6E0FEA3E022E5822406F582E43583F58322900000E0FEA3E0227418F0A374F6F0901947E0FFA3E022E0FEA3E0FFC322CFF0A3EFF0E4229013A1020484
:404740003A90000002043A12037CC30202EFD39018EEE09F9018EDE09E22EEF0A3EFF0AA06229013B3F0A3EFF02212045A7B517A00E4FDFC2212037C02019590000012042B
:40478000129000002274FFFFFEFDFC22E0FEA3E0240622AA06A9077B0122E0FAA3E0FBF5828A8322E0FEA3E0FF4E221203609000000204121203609000000204129FEE6406
:4047C00080F8E06480982290148E120CFC901496E07002A3E0700302493C901949E06402600302493C90148FE0240EFF90148EE034009014A4120E2AE0FFC0079014921242
:404800000F20D00712A7CD120F6C9014A4120C53120D3BE4FCFD1202B290149C1204129014A4120C53120D3BE4FCFD90149C12037C1201877803120313C006C0079014A46E
:4048400012107F120C59E0FBE4FAF9F8D007D006120220901492120DD990149812041290149212036080649014981203609014A0120DB6505E9014A0120E47121036120DDA
:4048800034123C67E4120E1770499014A4120FCF120C59120360E4F8C31202EF70129014A01203609014A4E0FAA3E0242F120C929014A4E0FAA3E0FB2433120C67FCEB240B
:4048C00033120C929014A0120C6DFC9014A012041280949014A4E0FEA3E0FF2433120C5912037CE8494A4B6053901496E0FCA3E0FDEF243B120C59ECF0A3EDF08D828C8335
:40490000E0FEA3E0240F120C59120360901498120412901498120DC86015901498120E3B901492120FA5121036120DA61226F59014A4120C60FCEB2437120C922290147C24
:40494000ECF0A3EDF090147A120E8CFE90148CF0A3EFF08E83241FF582E43583120C6BFC901488120412901949E064026003024A08120FFAFF243B120C59E0FCA3E0FD9066
:404980001482E06C7003A3E06D6011EF2433120C59120DC86006120CBE124AA9901482E0FEA3E0FF4E606190148CE0FCA3E0FD243B120D4DE0FAA3E06F7002EA6E7049ED2E
:4049C0002437120D4D12037CED2433120D4D120360C31202EF502B120FFAFF2437120C5912037CEF242F120C5912036012017A12109290148C120C60FCEB2437120C92026B
:404A00004A91120CBE124AA9120F40120C824005120DAD4011120FFA2427120C5912036090147E120412120F40120C824005120DAD4006120F4012041290147E1203601231
:404A40001092120E44120CB6123C67E4120E177008120C9B1247C780389014841203DD901488120C8250DBE47F02FEFD802F90147E120360901484120C825027120E441217
:404A80000CB6123C67E4120E17700C120C9B1247C7901484020360901484120C6DFC12109280CBE4FFFEFDFC22A3E0FCA3E0FD126F4D22901394127C7E127CA8FFF5828E6C
:404AC00083E0FCA3E0FD9013B2ECF0A3EDF02408F582E43CF583E0FDA3E09013B4CDF0A3EDF0EF2406127C5AE0FEA3E04E6002807D9013B2127C54120360901394127CB0C7
:404B0000C31202EF400F127CA82406127C5A74FFF0A3F08059901394127C75A3A3120360AB07AA069013B2127C54120360C3EF9BFFEE9AFE9013B6F0A3EFF0D3901399E0BA
:404B40009F901398E09E400F9013B6E0FFA3E0901398CFF0A3EFF0901398E07002A3E07011127CA82406127C5A74FFF0A3F0E4FEFF229013B2127C75120360E4FBFAF9F8EE
:404B8000C31202EF7003FEFF227E137FA7124C0C7E137F9C124C0C901398E0FCA3E0FD901394E0FAA3E0FB9013BE7413F0A3749CF0A37413F0A374A7F0901396E0FEA3E063
:404BC000FF122A3990139AEEF0A3EFF0901398E06E7003A3E06F601D127CA8FF2406127C5AE0FCA3E04C700DEF2406127C5A74FFF0A374F9F07E137FA712ABF97E137F9C4D
:404C000012ABF990139AE0FEA3E0FF229013B4E0FCA3E0FD1292ED22E49018D2F0A3F0901869E014FF12AABF9015A912045A906003E09015B0F0906004E09015AFF09015A6
:404C4000AAE475F0081201049015AFE075F004A4FF9015A912043AE92FF9EA35F0FA9015A912045AE92401F9E43AFA12046F9015A912045A9015AFE0FFC394014003024DED
:404C80007974D12FF582E43418F583E075F004A4FF9015A912043AE92FF9EA35F0FA9015A912045A9015A912043AE92401F9E43AFA12046F9015A912045A9015B0E0FFC38F
:404CC00094015003024D79EFD394034003024D79EF24FFFFE434FFFEEF7802C333CE33CED8F9FF9015A912043AE92FF9EA3EFA9015A912045A906002E09015B0F09015A988
:404D000012043A12001AFF9015B0E0FEEFD39E40689015A912043AE92401F9E43AFA12046F9015AC12045AEE75F008A4FF9015AC12043AE92FF9EA35F0FA9015AC12045A40
:404D40009015AC12043AE92402F9E43AFA12046F9018D412045A9015AC12043A120130FF9018D2E5F0F0A3EFF0E92405F9E43AFA12046F9018D712045A22A3E0FFE4FCFD45
:404D8000FEE412017A9014C61204129014C612036078081203139014C61204129014C612037C9014C4E0FEA3E0F5828E8322A905AA06AB07901580E475F00112011A85F04A
:404DC00082F583E0FFE4FCFDFE2214F5828C83EFF09014C612036078081203009014C61204129014C6020360E47F01FEFDFCA3E0F9F8120313EF24FFFFEE34FFFEED34FF48
:404E0000FDEC34FFFC2214F5828C83EFF0900000120360780812030090000012041290000002036014F5828C83EFF0900000020360900000E0FEA3E0FFE4FCFD229018E48F
:404E40001203609013B812037C02017A900000120360EF5407FFE4A90722E0FCA3E0F5828C832212041290000002036090000012041290000022E475F00112011A85F08254
:404E8000F583229000000204129000001204129000000203601203000BEBAC0222120360AB07AA0622F582E43EF583E0FDA3E022FFE43EFEE43DFDE43CFC228B828A83EF18
:404EC000F022EEF0A3EFF0F5828E832212037C020195900000020360900000E0FEA3E02404F582E43EF5832290147E120412900000E0FFA3E0901482CFF0A3EFF0900000F9
:404F0000E0FCA3E0FD900000E0FEA3E0FF22FCEB240BF582E43AF58322900000E0FEA3E0F5828E8322FDECF0A3EDF02408F582E43CF583E0FDA3E022900000120412E4FF72
:404F4000FEFDFC90000012037CC30202EF120360EF2401FFE43EFEE43DFDE43C22120360900000E0FAA3E0F5828A83A3A322900000E0FEA3E0900000FFE0FCA3E0FD22907F
:404F80000000E0FEA3E0FFE4FCFD22900000E0FEA3E0240F221203609014C6020412900000E0FEA3E0240622120412900000020360900000E0FEA3E022E0FEA3E0FF9000F8
:404FC00000E0FCA3E0FD22FF9013A2E03400FE22120187900000020412120360E4FBFAF9F8C30202EFE4900000F0A3F02212037CD30202EF900000E0FEA3E022EEF0A3EF91
:40500000F0A3ECF0A3EDF022F5828E83E0FCA3E022900000020412900000020360CDF0A3EDF0EF22E0FEA3E0FF7C137D932290146C1237FE12045A901471E07002A3E07029
:4050400007125170F0A3EFF090146E12043A901471E0FCA3E0FD12ACA4901476EEF0A3EFF090146CE0FEA3E0FF7B207A00E4FDFC12A1AC901473E0FEA3E0FFFD90146CE010
:40508000FAA3E0FBF5828A83EDF0901476E0FCA3E0FDEFB5050CEEB504088B828A83E04440F0EB240B123855740FF0901475E0FFEB240D123855EFF0901471E07002A3E027
:4050C0007005125170800B901471E0FFA3E0901471CFF0A3EFF0901474E024FFFF901473E034FFFE7C007D0D1200679014781237FEEEF0FCA3EFF0FD90146DE02401123734
:4051000070C00690146E12043AE92D1237407405123701FEE89C1237A9D006127D8C12379490146DE0240E123770C0061237327406123701FDE89CCD24FB1237A5D006120F
:405140007D8C12379490146DE0241C123770C006123732A37402123702FDE89CCD24F51237A5D006127D8C90147AEEF0A3EFF02290146E12043A12AD43901471EE22759343
:405180000078007583467582E8E04401F0009046ECE0F99046FAE0FAB903225420B40012B8001AEA901FFFF07401901FFEF09046F6F0901FFEE06005901FFFE0FA9048006E
:4051C00074C0F075815312AB829076BCE4F0A3F0A3F0A3F0907010F0907019F0907020F09076007410F0907604E4F0A3F0A3F0A3F09078007800087400F0A37408F0E8B8EF
:40520000040274FFA3F0A37422F0A374BCF0A37476F0A3E4F0A3E81475F008A4F0A3B804D59070107401F0907014F07E707F18120004907010F0EA9019B8F00200117508CF
:4052400020750900126DBF12A6CB02528802AED2E493A3F8E493A34003F68001F208DFF48029E493A3F85407240CC8C333C4540F4420C8834004F456800146F6DFE4800B4B
:40528000010204081020408090990DE47E019360BCA3FF543F30E509541FFEE493A360010ECF54C025E060A840B8E493A3FAE493A3F8E493A3C8C582C8CAC583CAF0A3C824
:4052C000C582C8CAC583CADFE9DEE780BE90156AECF0A3EDF0901568123A86E0FF90157FF012AF0E123A92901568E0FEA3E0FF7D3A12899C901578EFF0600B125407123A93
:40530000B212A2BDD32290157FE0FF7C157D747B047A0012A0857E157F74129B96901579120412125407123AB212A2BD90156AE0FAA3E0FB4A6025123C12781F120300EF84
:405340005401FFE4FEFDFCEF6012123C12781E120300EF5401FF8B828A83EFF0123C12EF5480FF901578EFF060169015707406F0A37472F090156E7407F0A3749EF0800D1A
:40538000E4901570F0A3F090156EF0A3F0123C12780812030090156CEEF0A3EFF090157DE4F0A304F0E4901578F0FD123AED4E7007123B6EEDB410F3C3901571E09472904E
:4053C0001570E09406500A123BB4901570F0A3CEF0EDC39410500B123AED4E6005123B6E80EF123BB490156EF0A3CEF090157FE0901570123C1890156EE0FAA3E0FB129433
:405400004EEFC37001D32290157FE0FF12AF1D90157F229013ED1241EFA312045A9013F112043AC003C002C00112430E12048F90140412419E9013F112552C124314C003DC
:40544000C002C0011242A3D082D083D0E06B7008E965827003EA658370289013FB1242CB1242A3C003C002C00112430E12048F12430E12046F7D5C7C0012A5869013FD129F
:40548000045A124314EA494B700302550C1242A3AF01AE02AD037C00A804C005C006C007124314AF01AE02AD03D003D002D001120187901400120412E4FFFEFDFC9014007D
:4054C00012037CD31202D9404390140012036090140FEEF0A3EFF090140412431A9014157410F0A31242FF1242A39013EFE0FCA3E0FD9013EDE0FEA3E0FF128749EF4E700E
:4055000002FF22129D249014041204129013FD12552CEA494B600302543B9014041203609013F712043A1203467F012212043A9013FA12045A9013F412043A12046F7D5C5A
:405540007C0012A5869013FD12045A2290FFC77401932401FFE4933400EF7B00FA90FFCB7401932BFFE4933AFEE48F498E48F547F546C201F54AAE02F5458E44F543F5423E
:40558000AF49AE48AD47AC46AB45AA44A943A842C31202EF5032854582854483E493F54B6005F46002D201E54B254AF54AAF45AE44AD43AC42E47B01FAF9F812017A8F45F0
:4055C0008E448D438C4280B890FFC77401932401FFE4933400EFFEE47803CEC313CE13D8F9FFE48F458E44F543F5427FC07EFFFDFCAB49AA48A947A846C31202EF7007FF87
:405600007E20FDFC800DAF49AE48AD47AC4678031203008F498E488D478C46AF49AE48AD47AC46AB45AA44A943A842C31202EF5039E42545FFE43544FEE5433408FDE43595
:4056400042A907AA06AB0512AF8BEF254AF54AAF45AE44AD43AC42E47B01FAF9F812017A8F458E448D438C4280B1E54AF404F54A90FFC0E493B54A032001037F06227F0066
:40568000229013ECECF0A3EDF09013EA121098E0FEA3E0FF9013FA121098120360E4120E1770139013EAE0FEA3E0FF12A613EF2401FFE43EFE229013EAE0FEA3E0FF125769
:4056C000B49013EE120E68FC9013EE120C827003FEFF229013EE1203609013F21204129013FAE0FAA3E0FB2408120D14E0FEA3E0FFC006C007EB240F120D141210167A1304
:4057000079F29014CB12045A9013ECE0FCA3E0FDD007D0061270D59013F61204129013F61203609013FAE0FAA3E0FB240F120C92EB240B120D14C083C08212037CC000C0A6
:4057400001C002C0039013F212037C9013EE121061D003D002D001D00012017AD082D083120E68FC9013F2120C8270419013FAE0FEA3E02408120C59E0FEA3E0FFC006C000
:40578000079013F61203609014001204129013ECE0FCA3E0FDD007D006125B369013FAE0FCA3E02419120D4DEEF0A3EFF09013F2120360228F828E83E0FDA3E0901406CDA3
:4057C000F0A3EDF012A6139013FC120DBD240B120C591203609013FC120C82500D74FF901406120F04240B120C92120DC0240B120C59120E127028FFFEFDFC901406E0FA52
:40580000A3E0FB240B120C928B828A83120360EB240F120C92EB2419120D14E4F0A3F0120DC0240B120C5912037C9013FC121061901402120DBD2419120C59120D9090142B
:4058400002120DB65009121067901400EE8010120DC02419120C59E0FFA3E0901400CFF0A3EFF0901400E07002A3E06072120DC0240F120C59C083C082120D8A12017AD014
:4058800082D083120DBD240B120C59C083C082120D8A12017AD082D083120DBD2419120C59C083C082E0FEA3E0FF901400E0FCA3E0FDC3EF9DFFEE9CD082D083F0A3EFF0CD
:4058C000121067C006C007901400E0FEA3E0FBAA06E4F9F8D007D006120187A31204121210672290137A12045A901379EFF0D394005003025A0CE094094003025A0CE0FDA1
:4059000024FFFFE434FFFEEFC4F8540FC868FFEEC454F04890137FEFF02488FFE43460FAA9077B01A312045A75F00BED90187412041EE0FEA3E0FFC3E49FFF74029EFED321
:4059400090137EE09F90137DE09E4020901379E075F00B90187412041EE0FEA3E0FFC3E49F90137EF074029E90137DF090137DE0FCA3E0FDECFF901379E075F00B90187106
:4059800012041EE04FFF90137FE0FE240CF582E43460F583EFF0ED740D2EF582E43460F583EDF090137A12043AE94A4B6033E4FFFED390137EE09F90137DE09E40239013B9
:4059C0007A12043AE92FF9EA3EFA12001AFD90138012043A89828A83EDF00FEF70010E80D0901379E0FF75F00B90186F12041EE4F075F00BEF90187312041EE0FF90137F13
:405A0000E0240EF582E43460F583EFF02290139E124FFC90139EE0FEA3E0FF2408124EE1E0FCA3E02412124F2D9013AC12501D2413124EE11203609013A81204129013A8A4
:405A40001203609014FB1204129013A0E0FEA3E0FF129CE390139EE0FEA3E02417124EE1E0FEA3E07805C333CE33CED8F9FF9013ADE024FFFD9013ACE034FF5EFEED5FFFCC
:405A80009013A0E0FAA3E0FB2406124F12E0FCA3E02FFFEC3E9013A2F0A3EFF0AF03AE021288B45003025B359013A3E0241C124FC7C006C00790139E124EDB124F95D00747
:405AC000D00612A7F790139E124F1C1203609014801204129013A2E0FEA3E0FF1299F0127B109013A41204129013A3E02416124FC7C006C0079013A4120360E4AD07AC063A
:405B0000D007D00612ACDC9013A3E02418124FC7C006C0079013A41203607810120300AD07AC06D007D00612ACDC9013A0E0FEA3E0FF12AF3B229013FEECF0A3EDF09013A0
:405B4000FC120FAE90140DF0A3120F64FAA9077B0190140412045A121041FFE4FCFDFE901400120EFE90140712041290140712037CC000C001C002C003120ED4C333CE3354
:405B8000CED8F9120D3FE4FCFDD003D002D001D0001202B2901407120412120ED4C333CE33CED8F9FF901407120F4A120187C00790140412043A121041FBE4FAF9F8D00730
:405BC00012022090140BEEF0A3EFF0D390140CE0940090140BE0648094804072E4901413F0901949E0B402209014001210027A14790F9014DC12045A9013FCE0FEA3E0FF32
:405C0000127250901413EFF0901413E0701F901400120E479013FEE0FCA3E0FD9013FCE0FEA3E0FF123C6790140F1204129014001203DD90140F120C82701390140D120E00
:405C4000AD90140B74FFF5F0120104025BCB90140DE0FEA3E0FF2290156FEEF0A3EFF0A3EDF012B00B901573EFF012AFD1901574EEF0A3EFF090156FE0FCA3E0FD6F7002EA
:405C8000EC6E7003025D769043A2E05401901572F0A3E0703FA3E0FEA3E0FF4E6004ED4C7032EF4E7015ED4C60117B027A40798012AF01904082E054BFF022904082E044A4
:405CC00040F07B027A40798090156FE0FCA3E0FD12AF0122901572E06040904001E4F090401004F0904014E4F0904008E0547FF07B027A407902901574E0FCA3E0FD12AFC5
:405D0000019040017407F0904001E020E0F99043A2E054FEF0904001E4F09043A2E030E02F7B027A40790290156FE0FCA3E0FD12AF01901571E060047F0280027F00EF44B9
:405D400001904001F0904001E030E01580F780117B027A40798090156FE0FCA3E0FD12AF019043A2C083C082E0FF901572E0FEEF4ED082D083F02290138B12045A7D0A7CBE
:405D800000E4901394F0A3F0EF6D7001EE6003025E8290138B12043AE92401F9E43AFA12001AFF1294A47D0090138B12043A12001AFF1294A4E490138B12043AE92402F959
:405DC000E43AFA12001AFF1294A4E490138B12043AE92403F9E43AFA12001AFF1294A4E490138B12043AE92404F9E43AFA12001AFF1294A4E490138B12043AE92405F9E4D4
:405E00003AFA12001AFF1294A4E490138B12043AE92406F9E43AFA12001AFF1294A4EFC454F0FD90138B12043AE92407F9E43AFA12001AFF1294A4EF4DFFE4FDFE90138E67
:405E400012043A12034690138B12043AE92408F9E43AFA12001AFF1294A4EFC454F0FD90138B12043AE92409F9E43AFA12001AFF1294A4EF4DFF90139112043AEF1200553B
:405E80008009901394E4F0A37403F0901394E0FEA3E0FF2290151B123A86E090152BF0D203901523E07004A3E064017F1270027F1190152AEFF090151BE0FEA3E0123A8B47
:405EC000A3E06402600C90151D123C1F90151D120412125FA1123AB212A2BD90152BE0FF12AF0E90151D120360123A9790152AE0FD123B5412899C901525EFF06003025F2A
:405F000095123B54129292901525EFF0F47003025F9590152BE0901521123C3612A08590152BE0FF7C157D267B027A0012A085901526E0FEA3E0FDEDA3123B0190152112CE
:405F40003C5D12A9CBEFF47002EEF46021901528E06E7003A3E06F601590152AE064127034123A93123B547D0C12899C8027901521740275F000120104901523123AE37086
:405F80008090152AE0B4120B123A92123B547D0C12899CC203125FA1123AB212A2BDA2032290152BE0FF12AF1D90152B229013C012045A9013BEEEF0A3EFF04E60459013EC
:405FC000C3E07002A3E070030260959013C91299BC9013BEE0FEA3E0FF9013CDEEF0A3EFF0C006C0079014FB1299BC9013C3E0FFA3E09014FFCFF0A3EFF0D007D00612A499
:40600000C550030260951299A57B0112AD75EF70030260951299A57B0112AB22EF707A1299A5E4FF12AFBB9013C51204121299A57B01E4FF12AFAF9013C91204129013CD12
:40604000E0FEA3E0FF7B017A1379CF12A00F9013C91299B060089013C51299B0700280359013C91203609013C512037C12017A7808120300E47BFFFAF9F81202209013D9A0
:406080001204129013D31203609013D912037CD31202EF400F1299E022E4FFFEFDFC9013C51204129013C012043AEA494B600F9013C91203609013C012043A120346901352
:4060C000C512036022901568123B48A3EAF0A3EBF090156AE0FEA3E07803CEC313CE13D8F9FF901570123B8B90156CE0FEA3E07803CEC313CE13D8F9FDAC06C39BFFEC9AA5
:40610000CF2401CF3400901572F0A3EFF090156FE024FFFF90156EE034FFFEC3EF9DFFEE9C901570F0A3EFF0901574123B5D9015741203607808120313123BA312037CC00C
:4061400000901568E0FEA3E0F5828E83C083C082901570E475F00112011AFED082D083E58225F0F582E5833EF583E0FFE4FCFDFED0001202BF901574120412901572123A63
:40618000E370AB90157412036090156AA3E05407F9F8120300123BA312037CC000C001C002C00390156AA3E0FFA3A3E0C39FFF74027E00A807088005C333CE33CED8F924D7
:4061C000FFFFEE34FFFE3395E0FDFCD003D002D001D0001202B2123BA31203602290152E123A86E090153DF0D204901536E07004A3E064017F1970027F1890153CEFF01297
:406200003BDC123A8BA3E06402600C901530123C1F90153012041290153DE0FF12AF1D123AAF12A2BD90153DE0FF12AF0E901530120360123A9790153CE0FD123BDCFF121C
:40624000899C901539EFF0E060030262E0123AAF12A2BD901534123C5D12A9CBAC06EC90153AF0A3EFF0A3E07FFCB418027FFEEF123A9D12A21B90153DE0901534123C3641
:4062800012A21B7C157D3A7B02123AA712A21B123AA112A085901539E0541F64057041123BDCFF12A04A4038901538E0700B901534740275F000120104901536123AE37000
:4062C0009290153CE06419701574FD123A9D12A21B123BDCFF12A04A4006C2048002C20490153DE0FF12AF1D123AAF12A2BDA204229013A612045A9013AF1264C17D3A7C60
:406300000012A5869013AC12045A9013AC12043AE94A4B70030263C71264EE9013AC12647F9013B11264D9E4A3F012001A60269013AD1264869013AC1264BBFF6017126479
:4063400096B43A11EF24D09013B3F09013ADE475F0021201049013AF1264659013B41264A0FA9013B712645E12001AFF12B0259013BA12648D12AD439013B1E0FCA3E0FDC7
:40638000B50730ECB5062C1264EE9013C012045A9013C3ECF0A3EDF09013BA12043A129825EF4E700E9013B71264BBFF9013B3E06F601D9013AF12642AE0FEA3E09013AF9D
:4063C0001264D1709080091264EE9013AC12045A9013A912043AEA494B60159013AC12043AC003C002C0019013A912043A12048F9013AFE0FEA3E0FF22E47E03FDFC900033
:4064000000120412E4FFFEFDFC9000001204129000007B007A00790002045A9013A97B007A00790002045A901395E0FEA3E0244FF582E43EF58322FF900000E475F0011200
:40644000011A85F082F58322E47E03FDFC900000120412E4FFFEFDFC900000020412A9077B0102045AE0FEA3E0FFF5828E83E0FCA3E0AA04F922E0FEA3E0F5828E8322AE83
:4064800002AF0102043AE475F001020104AA06A9077BFF02045AE92401F9E43AFA02001A7BFF12045AEF2402FFE43E22EEF0FCA3EFF0F5828C83A3A3A3E02212043A0200C3
:4064C0001A7418F0A374F6F022901395E0FEA3E022FFEEF0A3EFF04E22C3E99FFFEA9EF0A3EFF022AE02AF017A00E4FDFC229013A602043A90000002043AC0E0C0F0C08332
:40650000C082C085C084C086758600C093759300C0D075D000C000C001C002C003C004C005C006C007906028E090159CF0E0FF20E4030265D2A37401F0EF30E71B540F64CB
:40654000016004E4F0802E128FF390186AE030E72490159DE4F0801D90159CE030E60512AC50801190159CE030E50512A983800590159DE4F090159DE06057906028E09070
:40658000159CF0E05480704A90186DE0FF901865E04F90159CF0E0FF906029F0E0FEEF6E703090186AE090159DF0906028E0548090159CF0E0700F90186AE0906028F0E04E
:4065C000540F90159DF090186AE0FF90159DE0B507D0D007D006D005D004D003D002D001D000D0D0D093D086D084D085D082D083D0F0D0E0328B428A4389448C458D46D3A4
:40660000E5469440E54594004006754500754640E54A75F00AA4FF9019DBE5F0F0A3EFF0E4F54CF54DA3E0604112B01FEF702D054DE54DAE4C7002054C14FFD39019DCE012
:406640009F9019DBE09E40047F0180027F00EF600BE47F01FEFDFC128E5880CD12B01FEF600812B013E49019DDF07F0112AF64EF6401602D054DE54DAE4C7002054C14FF79
:40668000D39019DCE09F9019DBE09E40047F0180027F00EF600BE47F01FEFDFC128E5880C97F0112AF64EFB40126AB42AA43A94490137DE545F0A3E546F07F01127478ABEF
:4066C00047AA48A949EE8FF012015BE4F54B800FAB47AA48A949E4F5F012015B754B10AF4B227E107F009010047410F0A37400F07B007A407980E4FFFE7D58FC12AE7D900F
:4067000043007406F09042007452F07B0C7A01790F12AF8B9046A1EFF07B007A4279227D107C0712AEFF7B007A4279207D517C1012AEFFE4901006F07F19FEFDFC901000C5
:40674000120412901004E0FEA3E0F5828E83120360EC4D4E4F603B901006E064036033904225E05401FF901006E0FE25E04F5403F0E47FE07E01FDFC12A100901000120391
:406780006074FFFBFAF9F812017A90100012041280B17B007A4079047D037C0112AEFF904004E4F07407F0904006E4F09040087448F0904004E4F0904009F0904001740233
:4067C000F09043A2E04401F022901526123A86E090153BF0123BEA90153BE0FF12AF0E123A927D3712689E123AB212A2BD123A927D2912689EE0FF12AF1D90153B123AB29B
:4068000012A2BD90153AE0FF7008123BF57401F0800FEF20E20B123AE070BC90153A74FFF090153AE06047123BEA90153BE0FF12AF0E123A92123BCCFF7D0112899C90156A
:406840003AEFF0A3E0FF12AF1D90153B123AB212A2BD90153AE0FF7007123BF5E4F0800EEF64016002D322123AE070BED322123BCCFF7C157D281273099204300402D322E0
:40688000123BCCFF7C157D2812202B9204300402D322123BCCF5828E837401F0C322901526E0FEA3E0FF12899C90153AEFF0A3229013EFECF0A3EDF09013EDEEF0A3EFF0BE
:4068C0009013F1EAF0A3EBF0EF240EFFE43E9013FCF0A3EFF0EB4A70030269859013F112423074E5F09013EFE0FEA3E0FF12A0F99013F3E060499013F2E0241CFF9013F15C
:40690000E03400FE12A74E9013FE1204129013FC12421412418C1203609013FE12037C12017AEF24FFFFEE34FFFEED34FFFDEC34FF9013FC1241A612037C1202208007E427
:406940007FE87E03FDFC9013F81204129013F1E0FEA3E0FF129D249013F41204129013F41203609014061204129013F812036090140A1204129013EFE0FCA3E09013ED1296
:4069800042EF1290569013EFE0FEA3E0240912418CE0FF22901869E014FF12AABF9015A912045A906004E09015AFF09015AAE475F0081201049015AFE075F004A4FF9015BD
:4069C000A912043AE92FF9EA35F0FA9015A912045A9015A912043AE92401F9E43AFA12046F9015A912045A9015AFE024D1F582E43418F583E075F004A4FF9015A912043AF4
:406A0000E92FF9EA35F0FA9015A912045A9015A912043AE92401F9E43AFA12046F9015A912045A9015AAE475F00C1201049015A912043AE92401F9E43AFA12046F9015AC30
:406A400012045A9015AC12043AE92401F9E43AFA12001AFE9015AC12043A12001AFDEEEDFF9018D2EEF0A3EFF0E92402F9E43AFA9018D412045A2290151C123A86E0FF900E
:406A80001521F0E4901520F0D2037D907C01127E26D3EF9490EE94014002D322E47F507EC3FDFC90151CE0FAA3E0123B33E490151EF0A3F0901521E0FF12AF1D901521E084
:406AC000FF7D0A7C0012A2BD901521E0FF12954C901520EFF020E01490151EE475F001120104FEE5F064054E70CAD322901521E0FF12AF0EE47FAA7E01123A95123BD4FFF5
:406B00007D0812899C901520EFF030E211A3E0FF12AF1D123BD4FF1267C992038035123BD4123A8BE0FF7C157D227B047A0012A085901521E0FF12AF1D901525E0B4AA13F1
:406B4000901524E0540FFFBF0109123BD4FF127F599203A203229013A6EEF0A3EFF0A312045AE49013AFF0A3F0A3F0A3F0FBFAF9126CF69013B112475A4A7003026C071293
:406B8000772F9013AF12475A4A607C9013ABE0FF9013AFE0FCA3E0FD24091246B1EFF09013B1E0FEA3E0FF8D828C83EEF0A3EFF09013A6E0FCA3E0FD12464DECF0A3EDF03C
:406BC0009013A6ECF0A3EDF0A312043A9013AFE0FCA3E0FD9013ADE09013B8F09013AEE09013B9F09013ACE09013BAF01214F6EF3395E0FE9013A6E0FDA3E09013A6CDF07B
:406C0000A3EDF0EF4E60169013AFE0FEA3E0FF12AEB1E49013AFF0A3F0A312AC6C9013AFE0FEA3E0FF2212A820EF4E7003026CF5EF25E0FFEE33FE9018EDF0A3EFF07C0022
:406C40007D03120067E4FD12A3F89018EBEEF0A3EFF0A3E0FCA3E0FDA3E0FEA3E0FF120067E4FCFD12A3F8901389EEF0A3EFF09018EBE0FFA3E090138B124734A3F0A3F033
:406C80009018ED12472D90138EE09F90138DE09E503A901389E0FEA3E0FFA3E0FCA3E0F5828C83A3EEF0A3EFF09018EFE0FEA3E0FF901389EE8FF012010490138BE475F09C
:406CC0000312010490138D1246FB80B4E47F0CFEFDFC12A3F89018F2EEF0A3EFF0E47F1FFEFDFC12A3F89018F4EEF0A3EFF09018F1E04402F0229013B312045A9018F4E081
:406D0000FFA3E09013B6CFF0A3EFF09013B61246B8E0704DFFFEFDFC8B828A83120412E4FFFEFDFCEB24041246BF120412EB24081246BFE4F0A3F0EB240BFFE43AFE7B1276
:406D40007A00E4FDFC12A1AC124702240A124650E004F09013B312043A9013B312045A8059124702241D124650E0FEA3E04E702F7F1FFEFDFC12B0329013B6E0FCA3E0FD43
:406D8000241D1246B1EEF0A3EFF0ED241D1246B11247A4600A7B1F7A00E4FDFC12A1AC124702241D124650E0FEA3E0FF9013B6EEF0A3EFF04E6003026D0B124702FF2290A7
:406DC000480074F1F07B007A4679E812AF8BEF4405FD7B007A4679E812AF9712787E7B007A7679387D047C0012AD2A7B017A50790312AF8BEF4402FD7B017A50790312AF18
:406E0000977B017A50791312AF8BEF4402FD7B017A50791312AF979043A0E04440F09043C2E04410F07CBA7DA67B007A5179F07F0A7E0012A9127CBA7DB07B007A51795271
:406E40007F087E0012A9129044F47401F0904689743AF09048007431F01266E290480074F1F012ABDC7B007A4379A0C00179B090100512045AD0017F0E7E0012A390904345
:406E8000B0E054FDF02212AE0690137BEFF09043A5E04401F09043B5E04401F090609D7401F090600904F0906010E0547FF0E4FFFE12A644904394E054F9F0E04401F07F7B
:406EC000017E0012A6447F287E0012A6449051F8E0547FF0E054BFF0904394E04402F07F027E0012A644904394E04404F0906084E4F0A3F090137BE0FF12ADBF7C967D9526
:406F00007F171294F87D077F1712AD117CB07D477F151294F87D077F1512AD117C647DFA7F181294F87D077F1812AD117C957DF37F011294F87D077F0112AD117C967D446C
:406F4000E4FF1294F87D07E4FF12AD1122901490ECF0A3EDF090148E120E8CFE901492F0A3EFF08E832437120E33120DC86075E4FFFEFD804E901492E0FEA3E02437120CEC
:406F800059120CC7901494120C825040120FCC120C59120360901494120DD9120E3E901494120C6DFC901492E0FAA3E0242F120D14120DD99014AE120DF11226F59014942D
:406FC000120C6DFC90149412041280A9120FCC120C59120360901494120DD990149C120DF112A9A7E4901492120F04FB242F120C92E4FFFEFDFCEB2437120C92E4FFFEFDDB
:40700000FCEB2433120C92EB243B120D14E4F0A3F022123AB9E0FEA3E0AA06F97B019013F112045A9013E3120360120504705C000003EC7049000003F07049000003F17033
:40704000BF000003F3000070D1123BE4AE02AF017B127A00E4FDFC12A1AC8075123BE412001A700EAE02AF01126A7750057EFF7FFF229013EB12043A9013EE12045A123B85
:40708000E4E92404F9E43AFA120130FF9013EE12043AE92408F9E43AFAE5F08FF012015B123BE4E92406F9E43AFA1203269013EE12043AE92404F9E43AFA1203468012122D
:4070C0003BE4AE02AF0112A95E9019BDE014F08000E4FEFF229014C3120CFC9014CB12043A1203260271789014CE120DC87003027181E4FF901949E0B402179014C71210F6
:40710000027A1479D29014DC12045A12100EFF127250EF701B9014C7120E479014C5E0FCA3E0FD12100EFF123C679014D21204129014C5E0FEA3E02409120C59E06006E456
:40714000FFFEFDFC2212100E242D120C59120C6DFC9014D2120DB65028E4FFFEFDFC9014D2120C82601B9014D21203609014C71204129014CE120CC79014CE120412027069
:40718000E79014CE1203609014CB120F319014C712036022901869E014FF12AABF9015A912045A906004E09015ACF09015AAE475F0081201049015ACE075F004A4FF901553
:4071C000A912043AE92FF9EA35F0FA9015A912045A9015A912043AE92401F9E43AFA12046F9015A912045A9015ACE024D1F582E43418F583E075F004A4FF9015A912043AEF
:40720000E92FF9EA35F0FA9015A912045A9015A912043AE92401F9E43AFA12046F9015A912045A9015AAE475F0101201049015A912043AE92401F9E43AFA12046F12001A49
